{
  "contractName": "Voting",
  "abi": [
    {
      "inputs": [
        {
          "internalType": "string",
          "name": "",
          "type": "string"
        }
      ],
      "name": "votes",
      "outputs": [
        {
          "internalType": "uint256",
          "name": "",
          "type": "uint256"
        }
      ],
      "stateMutability": "view",
      "type": "function",
      "constant": true
    },
    {
      "inputs": [
        {
          "internalType": "string",
          "name": "candidate",
          "type": "string"
        }
      ],
      "name": "vote",
      "outputs": [],
      "stateMutability": "nonpayable",
      "type": "function"
    },
    {
      "inputs": [
        {
          "internalType": "string",
          "name": "candidate",
          "type": "string"
        }
      ],
      "name": "getVotes",
      "outputs": [
        {
          "internalType": "uint256",
          "name": "",
          "type": "uint256"
        }
      ],
      "stateMutability": "view",
      "type": "function",
      "constant": true
    }
  ],
  "bytecode": "0x608060405234801561000f575f80fd5b506104258061001d5f395ff3fe608060405234801561000f575f80fd5b506004361061003f575f3560e01c8063805265e514610043578063b99ef1fa14610073578063fc36e15b146100a3575b5f80fd5b61005d60048036038101906100589190610295565b6100bf565b60405161006a91906102f4565b60405180910390f35b61008d60048036038101906100889190610295565b6100e5565b60405161009a91906102f4565b60405180910390f35b6100bd60048036038101906100b89190610295565b610111565b005b5f80826040516100cf9190610379565b9081526020016040518091039020549050919050565b5f818051602081018201805184825260208301602085012081835280955050505050505f915090505481565b60015f826040516101229190610379565b90815260200160405180910390205f82825461013e91906103bc565b9250508190555050565b5f604051905090565b5f80fd5b5f80fd5b5f80fd5b5f80fd5b5f601f19601f8301169050919050565b7f4e487b71000000000000000000000000000000000000000000000000000000005f52604160045260245ffd5b6101a782610161565b810181811067ffffffffffffffff821117156101c6576101c5610171565b5b80604052505050565b5f6101d8610148565b90506101e4828261019e565b919050565b5f67ffffffffffffffff82111561020357610202610171565b5b61020c82610161565b9050602081019050919050565b828183375f83830152505050565b5f610239610234846101e9565b6101cf565b9050828152602081018484840111156102555761025461015d565b5b610260848285610219565b509392505050565b5f82601f83011261027c5761027b610159565b5b813561028c848260208601610227565b91505092915050565b5f602082840312156102aa576102a9610151565b5b5f82013567ffffffffffffffff8111156102c7576102c6610155565b5b6102d384828501610268565b91505092915050565b5f819050919050565b6102ee816102dc565b82525050565b5f6020820190506103075f8301846102e5565b92915050565b5f81519050919050565b5f81905092915050565b5f5b8381101561033e578082015181840152602081019050610323565b5f8484015250505050565b5f6103538261030d565b61035d8185610317565b935061036d818560208601610321565b80840191505092915050565b5f6103848284610349565b915081905092915050565b7f4e487b71000000000000000000000000000000000000000000000000000000005f52601160045260245ffd5b5f6103c6826102dc565b91506103d1836102dc565b92508282019050808211156103e9576103e861038f565b5b9291505056fea26469706673582212202f37efada210a91a12e1338b7273d3b88a42366f9e19a10a7ce8bac53c51cff664736f6c63430008150033",
  "immutableReferences": {},
  "source": "// SPDX-License-Identifier: MIT\r\npragma solidity ^0.8.0;\r\n\r\ncontract Voting {\r\n    mapping(string => uint) public votes;\r\n\r\n    function vote(string memory candidate) public {\r\n        votes[candidate] += 1;\r\n    }\r\n\r\n    function getVotes(string memory candidate) public view returns (uint) {\r\n        return votes[candidate];\r\n    }\r\n}\r\n",
  "sourcePath": "C:\\Users\\riyar\\OneDrive\\Desktop\\BlockchainVotingSystem\\contracts\\Voting.sol",
  "compiler": {
    "name": "solc",
    "version": "0.8.21+commit.d9974bed.Emscripten.clang"
  },
  "schemaVersion": "3.4.16",
  "updatedAt": "2025-02-20T14:07:57.481Z",
  "networkType": "ethereum",
  "devdoc": {
    "kind": "dev",
    "methods": {},
    "version": 1
  },
  "userdoc": {
    "kind": "user",
    "methods": {},
    "version": 1
  }
}